:020000020000FC
:10000000E8E8E0E0A0E6B0E0F5E045914D93FA9530
:10001000E1F7EEE8F0E0C0E8D0E0F4E04591499384
:10002000FA95E1F7C4EFD1E0A0EBB0E0259028828B
:10003000A0E6B0E0F5E090E0292E392E492E0D9192
:100040001881010290E011200AF49FEF200C311C6E
:10005000441ECA95CF3711F4C4E8D0E00A9579F769
:10006000C395C53809F4C0E85A2E6B2EAC2FBD2FAE
:10007000C52DD62D39925A2E6B2EAC2FBD2FC52DE6
:10008000D62D219799F60000CF0D580DCF0000878F
:10009000B54B790087B54B790087B54B790087B5AB
:1000A0004B790087B54B790087B54B790087B54B05
:1000B000790087B54B790087B54B790087B54B79C7
:1000C0000087B54B790087B54B790087B54B790030
:1000D00087B54B790087B54B790087B54B79008799
:1000E000B54B790087B54B790087B54B790087B55B
:1000F0004B790087B54B790087B54B790087B54BB5
:10010000790087B54B790087B54B790087B54B7976
:100110000087B54B790087B54B790087B54B7900DF
:1001200087B54B790087B54B790087B54B79008748
:10013000B54B790087B54B790087B54B790087B50A
:100140004B790087B54B790087B54B790087B54B64
:10015000790087B54B790087B54B790087B54B7926
:100160000087B54B790087B54B790087B54B79008F
:1001700087B54B790087B54B790087B54B790087F8
:10018000B54B790087B54B790087B54B790087B5BA
:100190004B790087B54B790087B54B790087B54B14
:1001A000790087B54B790087B54B790087B54B79D6
:1001B0000087B54B790087B54B790087B54B79003F
:1001C00087B54B790087B54B790087B54B790087A8
:1001D000B54B790087B54B790087B54B790087B56A
:1001E0004B790087B54B790087B54B790087B54BC4
:1001F000790087B54B790087B54B790087B54B7986
:100200000087B54B790087B54B790087B54B7900EE
:1002100087B54B790087B54B790087B54B79008757
:10022000B54B790087B54B790087B54B790087B519
:100230004B790087B54B790087B54B790087B54B73
:10024000790087B54B790087B54B790087B54B7935
:100250000087B54B790087B54B790087B54B79009E
:1002600087B54B790087B54B790087B54B79008707
:10027000B54B790087B54B790087B54B790087B5C9
:020280004B79B8
:00000001FF
